:020000040800F2
:10000000A00600202902000831020008330200087F
:10001000350200083702000839020008000000001D
:100020000000000000000000000000003B0200088B
:100030003D020008000000003F02000841020008E5
:10004000430200084302000843020008430200087C
:10005000430200084302000843020008430200086C
:10006000430200084302000843020008430200085C
:10007000430200084302000843020008430200084C
:10008000430200084302000843020008430200083C
:10009000430200084302000843020008430200082C
:1000A000430200084302000843020008430200081C
:1000B000430200084302000843020008430200080C
:1000C00043020008430200084302000843020008FC
:1000D00043020008430200084302000843020008EC
:1000E00043020008430200084302000843020008DC
:1000F00043020008430200084302000843020008CC
:1001000043020008430200084302000843020008BB
:1001100043020008430200084302000843020008AB
:10012000430200084302000843020008430200089B
:10013000430200084302000843020008430200088B
:10014000430200084302000843020008430200087B
:10015000430200084302000843020008430200086B
:10016000430200084302000843020008430200085B
:100170004302000843020008430200080000000098
:10018000430200084302000800F002F800F03CF8C7
:100190000AA090E8000C82448344AAF10107DA45E2
:1001A00001D100F031F8AFF2090EBAE80F0013F0F8
:1001B000010F18BFFB1A43F0010318478C0600001B
:1001C000AC060000103A24BF78C878C1FAD85207AC
:1001D00024BF30C830C144BF04680C6070470000C1
:1001E0000023002400250026103A28BF78C1FBD840
:1001F000520728BF30C148BF0B6070471FB500F0E1
:1002000015FB1FBD10B510BD00F036F81146FFF705
:10021000F5FF00F0EBFA00F054F803B4FFF7F2FF3B
:1002200003BC00F057F80000094880470948004720
:10023000FEE7FEE7FEE7FEE7FEE7FEE7FEE7FEE796
:10024000FEE7FEE704480549054A064B70470000F3
:10025000A507000889010008A0000020A0060020D2
:10026000A0020020A00200207047704770470000E5
:1002700000487047400000207546FFF7F9FFAE4682
:1002800005006946534620F00700854618B020B5A2
:10029000FFF7D8FFBDE820404FF000064FF0000701
:1002A0004FF000084FF0000BAC46ACE8C009ACE8DA
:1002B000C009ACE8C009ACE8C00921F007018D46CF
:1002C000704710B50446AFF300802046BDE81040EB
:1002D000FFF7A3BF01491820ABBEFEE726000200CE
:1002E0007047000080B582B001208DF80700FFE75D
:1002F0009DF8070008280CDCFFE79DF807000021A7
:1003000000F0B0F9FFE79DF8070001308DF8070015
:10031000EEE702B080BD000080B584B009200090F7
:100320000021019100F09EF900990A2000F09AF94D
:100330000B20072100F096F90C200121029100F01A
:1003400091F901990F2000F08DF902988DF80F00B6
:10035000FFE79DF80F0008280CDCFFE79DF80F0071
:10036000002100F07FF9FFE79DF80F0001308DF8C4
:100370000F00EEE704B080BD80B584B0039000208C
:10038000029001908DF80300FFE79DF80300072815
:100390002DDCFFE700208DF80200FFE79DF802004A
:1003A00007281DDCFFE703989DF8021000EBC10051
:1003B0009DF80310405C60B1FFE79DF8021001203A
:1003C00000FA01F39DF8032001A9885C18438854C2
:1003D000FFE7FFE79DF8020001308DF80200DDE73E
:1003E000FFE79DF8030001308DF80300CDE7002002
:1003F0008DF80100FFE79DF8010007280FDCFFE7FB
:100400009DF80120501C01A9895CC0B200F02AF9B6
:10041000FFE79DF8010001308DF80100EBE704B023
:1004200080BD000080B584B001203C21039100F024
:1004300019F902204221029100F014F903208121D0
:10044000019100F00FF90199042000F00BF90199D6
:10045000052000F007F90199062000F003F9029940
:10046000072000F0FFF80399082000F0FBF804B023
:1004700080BD000080B584B001208121039100F08F
:10048000F1F802204221029100F0ECF8032024212F
:10049000019100F0E7F804201821009100F0E2F843
:1004A0000099052000F0DEF80199062000F0DAF846
:1004B0000299072000F0D6F80399082000F0D2F83E
:1004C00004B080BD43F63001C4F20201086840F078
:1004D0000100086043F64401C4F20201086840F4D8
:1004E000805008600022C4F20202106840F42840E4
:1004F00010600821C4F20201086840F47C400860E2
:100500002023C4F20203186840F2000CC5F2505CCC
:1005100040EA0C001860106840F4807010600422FB
:10052000C4F20202106820F010001060086840F465
:10053000407008601421C4F20201086840F0100005
:10054000086043F20001C4F20101086820F00300D2
:100550000860086840F004000860086840F018006F
:100560000860086820F080000860086840F4407067
:100570000860086820F480600860086820F4006063
:10058000086043F20402C4F201020020106008680F
:1005900040F040000860704781B08DF803009DF87E
:1005A000030040B1FFE71421C4F20201086840F0E3
:1005B0001000086007E01421C4F20201086820F06E
:1005C00010000860FFE701B07047000080B584B0FC
:1005D0000390029100200190FFF7DEFFFFE70198F2
:1005E0000299884217D2FFE7FFE743F20800C4F2FE
:1005F000010000688007002801D4FFE7F5E70398B1
:100600000199405C43F20C01C4F2010108600198B9
:1006100001300190E3E7FFE743F20800C4F2010074
:1006200000688007002801D4FFE7F5E7FFE743F201
:100630000800C4F2010000680006002801D5FFE7A9
:10064000F5E743F20C00C4F201000068019043F2A8
:100650000800C4F20100006801900120FFF79CFF30
:1006600004B080BD80B582B08DF807008DF806100B
:100670009DF807008DF804009DF806008DF8050030
:1006800001A80221FFF7A2FF02B080BD82B043F6AD
:100690000001C4F20201086840F480300860FFE7FE
:1006A00043F60000C4F2020000688003002801D471
:1006B000FFE7F5E743F64001C4F20201086840F0A5
:1006C0008050086047F20001C4F20001086840F45D
:1006D0004040086043F60041C4F2020100910868FE
:1006E00040F400700860086840F4806008600868A2
:1006F00040F480700860086840F00500086043F628
:100700000801C4F2020108684FF60F721040086039
:10071000086840F4A0500860086840F40040086091
:1007200043F60401C4F20201019108686FF311005D
:100730000860086840F004000860086840F4285029
:100740000860086820F440300860086840F48000C1
:10075000086043F60001C4F20201086840F08070AE
:100760000860FFE743F60000C4F202000068800161
:10077000002801D4FFE7F5E743F60801C4F20201BF
:10078000086840F002000860FFE743F60800C4F282
:100790000200006800F00C00082801D0FFE7F4E731
:1007A00002B070474EF68851CEF20001086840F45E
:1007B000700008607047000082B000200190FFE7E1
:1007C0000198B0F52F7F0FDAFFE74FF6FF7000902A
:1007D000FFE70098411E009108B1FFE7F9E7FFE746
:1007E000019801300190EBE702B0704780B582B00C
:1007F000002000900190FFF749FFFFF763FEFFF72D
:100800008BFD40F20000C2F20000FFF7B5FDFFF7DC
:10081000D3FFFFF707FEFFF7CFFFFFF72BFEFFF732
:10082000CBFFFFF75FFD009802B080BDF1EE100A2C
:100830004FF6FF71C0F2C03120EA010040F0407075
:10084000E1EE100A70470000680800080000002070
:1008500040000000C4010008A80800084000002073
:1008600060060000E0010008000000000000000039
:100870000001010000010100010000010100000170
:100880000100000101000001000101000001010060
:100890000000010000010000000000010100000054
:0808A000000000000000000050
:0400000508000229C4
:00000001FF
