:020000040800F2
:10000000A006002089010008910100089301000862
:100010009501000897010008990100080000000000
:100020000000000000000000000000009B0100082C
:100030009D010008000000009F010008A1010008C8
:10004000A3010008A3010008A3010008A301000800
:10005000A3010008A3010008A3010008A3010008F0
:10006000A3010008A3010008A3010008A3010008E0
:10007000A3010008A3010008A3010008A3010008D0
:10008000A3010008A3010008A3010008A3010008C0
:10009000A3010008A3010008A3010008A3010008B0
:1000A000A3010008A3010008A3010008A3010008A0
:1000B000A3010008A3010008A3010008A301000890
:1000C000A3010008A3010008A3010008A301000880
:1000D000A3010008A3010008A3010008A301000870
:1000E000A3010008A3010008A301000800F002F822
:1000F00000F03AF80AA090E8000C82448344AAF188
:100100000107DA4501D100F02FF8AFF2090EBAE885
:100110000F0013F0010F18BFFB1A43F0010318473B
:1001200098060000B8060000103A24BF78C878C1CD
:10013000FAD8520724BF30C830C144BF04680C60ED
:10014000704700000023002400250026103A28BF35
:1001500078C1FBD8520728BF30C148BF0B60704739
:100160001FB51FBD10B510BD00F036F81146FFF7E2
:10017000F7FF00F003FB00F054F803B4FFF7F2FFC1
:1001800003BC00F057F800000948804709480047C1
:10019000FEE7FEE7FEE7FEE7FEE7FEE7FEE7FEE737
:1001A000FEE7FEE704480549054A064B7047000094
:1001B000E1060008ED000008A0000020A0060020D5
:1001C000A0020020A0020020704770477047000086
:1001D00000487047400000207546FFF7F9FFAE4623
:1001E00005006946534620F00700854618B020B543
:1001F000FFF7D8FFBDE820404FF000064FF00007A2
:100200004FF000084FF0000BAC46ACE8C009ACE87A
:10021000C009ACE8C009ACE8C00921F007018D466F
:10022000704710B50446AFF300802046BDE810408B
:10023000FFF7A3BF01491820ABBEFEE7260002006E
:100240007047000080B582B001208DF80700FFE7FD
:100250009DF8070008280CDCFFE79DF80700002147
:1002600000F094F9FFE79DF8070001308DF80700D2
:10027000EEE702B080BD000080B584B00920009098
:100280000021019100F082F900990A2000F07EF926
:100290000B20072100F07AF90C200121029100F0D7
:1002A00075F901990F2000F071F902988DF80F008F
:1002B000FFE79DF80F0008280CDCFFE79DF80F0012
:1002C000002100F063F9FFE79DF80F0001308DF881
:1002D0000F00EEE704B080BD80B584B0039000202D
:1002E000029001908DF80300FFE79DF803000728B6
:1002F0002DDCFFE700208DF80200FFE79DF80200EB
:1003000007281DDCFFE703989DF8021000EBC100F1
:100310009DF80310405C60B1FFE79DF802100120DA
:1003200000FA01F39DF8032001A9885C1843885462
:10033000FFE7FFE79DF8020001308DF80200DDE7DE
:10034000FFE79DF8030001308DF80300CDE70020A2
:100350008DF80100FFE79DF8010007280FDCFFE79B
:100360009DF80120501C01A9895CC0B200F00EF973
:10037000FFE79DF8010001308DF80100EBE704B0C4
:1003800080BD000080B584B001203C21039100F0C5
:10039000FDF802204221029100F0F8F803208121AB
:1003A000019100F0F3F80199042000F0EFF80199B1
:1003B000052000F0EBF80199062000F0E7F802991B
:1003C000072000F0E3F80399082000F0DFF804B0FC
:1003D00080BD000080B584B001208121039100F030
:1003E000D5F802204221029100F0D0F80320242108
:1003F000019100F0CBF804201821009100F0C6F81C
:100400000099052000F0C2F80199062000F0BEF81E
:100410000299072000F0BAF80399082000F0B6F816
:1004200004B080BD41F21801C4F20201086840F036
:1004300004000860086840F48050086040F600023C
:10044000C4F2010200201060116841F43001116013
:10045000116841F030411160116841F08061116014
:10046000116841F44031116043F20001C4F201010E
:100470000A8822F003020A800A8842F004020A80F5
:100480000A8842F020020A800A8822F080020A804C
:100490000A8842F440720A800A8822F480620A8044
:1004A0000A8822F400620A8043F20402C4F20102C4
:1004B0001080088840F040000880704781B08DF8B7
:1004C00003009DF8030048B1FFE740F60C01C4F2B9
:1004D0000101086840F01000086008E040F60C01D7
:1004E000C4F20101086820F010000860FFE701B0C5
:1004F0007047000080B584B0039002910020019005
:10050000FFF7DCFFFFE701980299884217D2FFE767
:10051000FFE743F20800C4F20100008880070028CA
:1005200001D4FFE7F5E703980199405C43F20C0121
:10053000C4F201010880019801300190E3E7FFE770
:1005400043F20800C4F2010000888007002801D4AB
:10055000FFE7F5E7FFE743F20800C4F20100008877
:100560000006002801D5FFE7F5E743F20C00C4F2CE
:1005700001000088019043F20800C4F201000088E5
:1005800001900120FFF79AFF04B080BD80B582B0D2
:100590008DF807008DF806109DF807008DF804000F
:1005A0009DF806008DF8050001A80221FFF7A2FFC3
:1005B00002B080BD80B500F001F880BD84B000209D
:1005C0000390029041F20001C4F20201086840F475
:1005D00080300860FFE741F20000C4F202000068CA
:1005E00000F400300290039801300390FFE7029975
:1005F0000020019039B9FFE70398B0F5A06018BF5B
:1006000001200190FFE70198C0070028E3D1FFE730
:1006100041F20000C4F2020000688003002803D504
:10062000FFE70120029002E000200290FFE702981D
:10063000012851D1FFE742F20001C4F2020108682B
:1006400040F010000860086820F0070008600868A3
:1006500040F00200086041F20401C4F2020100917E
:100660000868086008680860086840F480600860EE
:10067000086820F47C100860086840F4E8100860FE
:1006800041F20001C4F20201086840F08070086085
:10069000FFE741F20000C4F2020000688001002878
:1006A00001D4FFE7F5E741F20401C4F20201086852
:1006B00020F003000860086840F002000860FFE7CF
:1006C00041F20400C4F20200006800F00C000828A7
:1006D00001D0FFE7F4E700E0FFE704B07047000057
:1006E00080B541F20002C4F20202106840F001003D
:1006F000106041F20401C4F2020108680023CFF641
:10070000FF031840086010684FF6FF73CFF6F663DA
:1007100018401060106820F480201060086820F4F1
:10072000FE00086041F20801C4F202014FF41F000C
:100730000860FFF73FFF4EF60851CEF200014FF080
:100740000060086080BD000082B000200190FFE7DB
:100750000198B0F52F7F0FDAFFE74FF6FF7000909A
:10076000FFE70098411E009108B1FFE7F9E7FFE7B6
:10077000019801300190EBE702B0704780B582B07C
:10078000002000900190FFF74DFEFFF775FD40F24D
:100790000000C2F20000FFF79FFDFFF7D5FFFFF753
:1007A000F1FDFFF7D1FFFFF715FEFFF7CDFFFFF7D4
:1007B00049FD009802B080BDD80700080000002065
:1007C0004000000028010008180800084000002030
:1007D0006006000044010008000000000000000066
:1007E0000001010000010100010000010100000101
:1007F00001000001010000010001010000010100F1
:1008000000000100000100000000000101000000E4
:080810000000000000000000E0
:040000050800018965
:00000001FF
